{
  "_format": "hh-sol-artifact-1",
  "contractName": "Ticket",
  "sourceName": "contracts/Ticket/Ticket.sol",
  "abi": [
    {
      "inputs": [],
      "name": "InvalidAmount",
      "type": "error"
    },
    {
      "inputs": [],
      "name": "InvalidInput",
      "type": "error"
    },
    {
      "inputs": [],
      "name": "TransactionFailed",
      "type": "error"
    },
    {
      "inputs": [],
      "name": "Unauthorized",
      "type": "error"
    },
    {
      "inputs": [],
      "name": "Unavailable",
      "type": "error"
    },
    {
      "inputs": [],
      "name": "WinnerAlreadyChosen",
      "type": "error"
    },
    {
      "anonymous": false,
      "inputs": [
        {
          "indexed": true,
          "internalType": "address",
          "name": "owner",
          "type": "address"
        },
        {
          "indexed": true,
          "internalType": "address",
          "name": "approved",
          "type": "address"
        },
        {
          "indexed": true,
          "internalType": "uint256",
          "name": "tokenId",
          "type": "uint256"
        }
      ],
      "name": "Approval",
      "type": "event"
    },
    {
      "anonymous": false,
      "inputs": [
        {
          "indexed": true,
          "internalType": "address",
          "name": "owner",
          "type": "address"
        },
        {
          "indexed": true,
          "internalType": "address",
          "name": "operator",
          "type": "address"
        },
        {
          "indexed": false,
          "internalType": "bool",
          "name": "approved",
          "type": "bool"
        }
      ],
      "name": "ApprovalForAll",
      "type": "event"
    },
    {
      "anonymous": false,
      "inputs": [
        {
          "indexed": false,
          "internalType": "uint8",
          "name": "version",
          "type": "uint8"
        }
      ],
      "name": "Initialized",
      "type": "event"
    },
    {
      "anonymous": false,
      "inputs": [
        {
          "indexed": true,
          "internalType": "address",
          "name": "from",
          "type": "address"
        },
        {
          "indexed": true,
          "internalType": "address",
          "name": "to",
          "type": "address"
        },
        {
          "indexed": true,
          "internalType": "uint256",
          "name": "tokenId",
          "type": "uint256"
        }
      ],
      "name": "Transfer",
      "type": "event"
    },
    {
      "anonymous": false,
      "inputs": [
        {
          "indexed": true,
          "internalType": "address",
          "name": "winner",
          "type": "address"
        },
        {
          "indexed": true,
          "internalType": "uint256",
          "name": "ticket",
          "type": "uint256"
        }
      ],
      "name": "WinnerChoosen",
      "type": "event"
    },
    {
      "inputs": [],
      "name": "END_BLOCK",
      "outputs": [
        {
          "internalType": "uint256",
          "name": "",
          "type": "uint256"
        }
      ],
      "stateMutability": "view",
      "type": "function"
    },
    {
      "inputs": [],
      "name": "START_BLOCK",
      "outputs": [
        {
          "internalType": "uint256",
          "name": "",
          "type": "uint256"
        }
      ],
      "stateMutability": "view",
      "type": "function"
    },
    {
      "inputs": [],
      "name": "TICKET_PRICE",
      "outputs": [
        {
          "internalType": "uint256",
          "name": "",
          "type": "uint256"
        }
      ],
      "stateMutability": "view",
      "type": "function"
    },
    {
      "inputs": [],
      "name": "WINNER_PICKER",
      "outputs": [
        {
          "internalType": "contract WinnerPicker",
          "name": "",
          "type": "address"
        }
      ],
      "stateMutability": "view",
      "type": "function"
    },
    {
      "inputs": [
        {
          "internalType": "address",
          "name": "to",
          "type": "address"
        },
        {
          "internalType": "uint256",
          "name": "tokenId",
          "type": "uint256"
        }
      ],
      "name": "approve",
      "outputs": [],
      "stateMutability": "nonpayable",
      "type": "function"
    },
    {
      "inputs": [
        {
          "internalType": "address",
          "name": "owner",
          "type": "address"
        }
      ],
      "name": "balanceOf",
      "outputs": [
        {
          "internalType": "uint256",
          "name": "",
          "type": "uint256"
        }
      ],
      "stateMutability": "view",
      "type": "function"
    },
    {
      "inputs": [],
      "name": "bigWinnerTicketId",
      "outputs": [
        {
          "internalType": "uint256",
          "name": "",
          "type": "uint256"
        }
      ],
      "stateMutability": "view",
      "type": "function"
    },
    {
      "inputs": [],
      "name": "buyTicket",
      "outputs": [],
      "stateMutability": "payable",
      "type": "function"
    },
    {
      "inputs": [
        {
          "internalType": "string",
          "name": "_tokenUri",
          "type": "string"
        }
      ],
      "name": "buyTicketWithURI",
      "outputs": [],
      "stateMutability": "payable",
      "type": "function"
    },
    {
      "inputs": [],
      "name": "claimBigReward",
      "outputs": [],
      "stateMutability": "nonpayable",
      "type": "function"
    },
    {
      "inputs": [],
      "name": "claimSurpriseReward",
      "outputs": [],
      "stateMutability": "nonpayable",
      "type": "function"
    },
    {
      "inputs": [],
      "name": "finished",
      "outputs": [
        {
          "internalType": "bool",
          "name": "",
          "type": "bool"
        }
      ],
      "stateMutability": "view",
      "type": "function"
    },
    {
      "inputs": [
        {
          "internalType": "uint256",
          "name": "tokenId",
          "type": "uint256"
        }
      ],
      "name": "getApproved",
      "outputs": [
        {
          "internalType": "address",
          "name": "",
          "type": "address"
        }
      ],
      "stateMutability": "view",
      "type": "function"
    },
    {
      "inputs": [],
      "name": "id",
      "outputs": [
        {
          "internalType": "uint256",
          "name": "",
          "type": "uint256"
        }
      ],
      "stateMutability": "view",
      "type": "function"
    },
    {
      "inputs": [
        {
          "internalType": "string",
          "name": "_name",
          "type": "string"
        },
        {
          "internalType": "string",
          "name": "_symbol",
          "type": "string"
        },
        {
          "internalType": "uint64",
          "name": "_start",
          "type": "uint64"
        },
        {
          "internalType": "uint64",
          "name": "_end",
          "type": "uint64"
        },
        {
          "internalType": "uint128",
          "name": "_price",
          "type": "uint128"
        },
        {
          "internalType": "address",
          "name": "_winnerPicker",
          "type": "address"
        }
      ],
      "name": "initialize",
      "outputs": [],
      "stateMutability": "nonpayable",
      "type": "function"
    },
    {
      "inputs": [
        {
          "internalType": "address",
          "name": "owner",
          "type": "address"
        },
        {
          "internalType": "address",
          "name": "operator",
          "type": "address"
        }
      ],
      "name": "isApprovedForAll",
      "outputs": [
        {
          "internalType": "bool",
          "name": "",
          "type": "bool"
        }
      ],
      "stateMutability": "view",
      "type": "function"
    },
    {
      "inputs": [],
      "name": "name",
      "outputs": [
        {
          "internalType": "string",
          "name": "",
          "type": "string"
        }
      ],
      "stateMutability": "view",
      "type": "function"
    },
    {
      "inputs": [
        {
          "internalType": "uint256",
          "name": "tokenId",
          "type": "uint256"
        }
      ],
      "name": "ownerOf",
      "outputs": [
        {
          "internalType": "address",
          "name": "",
          "type": "address"
        }
      ],
      "stateMutability": "view",
      "type": "function"
    },
    {
      "inputs": [],
      "name": "payedSmall",
      "outputs": [
        {
          "internalType": "bool",
          "name": "",
          "type": "bool"
        }
      ],
      "stateMutability": "view",
      "type": "function"
    },
    {
      "inputs": [
        {
          "internalType": "uint256",
          "name": "_randomness",
          "type": "uint256"
        }
      ],
      "name": "pickBigWinner",
      "outputs": [],
      "stateMutability": "nonpayable",
      "type": "function"
    },
    {
      "inputs": [
        {
          "internalType": "uint256",
          "name": "_randomness",
          "type": "uint256"
        }
      ],
      "name": "pickSmallWinner",
      "outputs": [],
      "stateMutability": "nonpayable",
      "type": "function"
    },
    {
      "inputs": [],
      "name": "pickWinner",
      "outputs": [],
      "stateMutability": "nonpayable",
      "type": "function"
    },
    {
      "inputs": [],
      "name": "pickedBigWinner",
      "outputs": [
        {
          "internalType": "bool",
          "name": "",
          "type": "bool"
        }
      ],
      "stateMutability": "view",
      "type": "function"
    },
    {
      "inputs": [],
      "name": "pickedSmallWinner",
      "outputs": [
        {
          "internalType": "bool",
          "name": "",
          "type": "bool"
        }
      ],
      "stateMutability": "view",
      "type": "function"
    },
    {
      "inputs": [
        {
          "internalType": "address",
          "name": "from",
          "type": "address"
        },
        {
          "internalType": "address",
          "name": "to",
          "type": "address"
        },
        {
          "internalType": "uint256",
          "name": "tokenId",
          "type": "uint256"
        }
      ],
      "name": "safeTransferFrom",
      "outputs": [],
      "stateMutability": "nonpayable",
      "type": "function"
    },
    {
      "inputs": [
        {
          "internalType": "address",
          "name": "from",
          "type": "address"
        },
        {
          "internalType": "address",
          "name": "to",
          "type": "address"
        },
        {
          "internalType": "uint256",
          "name": "tokenId",
          "type": "uint256"
        },
        {
          "internalType": "bytes",
          "name": "data",
          "type": "bytes"
        }
      ],
      "name": "safeTransferFrom",
      "outputs": [],
      "stateMutability": "nonpayable",
      "type": "function"
    },
    {
      "inputs": [
        {
          "internalType": "address",
          "name": "operator",
          "type": "address"
        },
        {
          "internalType": "bool",
          "name": "approved",
          "type": "bool"
        }
      ],
      "name": "setApprovalForAll",
      "outputs": [],
      "stateMutability": "nonpayable",
      "type": "function"
    },
    {
      "inputs": [],
      "name": "smallWinnerRewardAmount",
      "outputs": [
        {
          "internalType": "uint256",
          "name": "",
          "type": "uint256"
        }
      ],
      "stateMutability": "view",
      "type": "function"
    },
    {
      "inputs": [],
      "name": "smallWinnerTicketId",
      "outputs": [
        {
          "internalType": "uint256",
          "name": "",
          "type": "uint256"
        }
      ],
      "stateMutability": "view",
      "type": "function"
    },
    {
      "inputs": [],
      "name": "started",
      "outputs": [
        {
          "internalType": "bool",
          "name": "",
          "type": "bool"
        }
      ],
      "stateMutability": "view",
      "type": "function"
    },
    {
      "inputs": [
        {
          "internalType": "bytes4",
          "name": "interfaceId",
          "type": "bytes4"
        }
      ],
      "name": "supportsInterface",
      "outputs": [
        {
          "internalType": "bool",
          "name": "",
          "type": "bool"
        }
      ],
      "stateMutability": "view",
      "type": "function"
    },
    {
      "inputs": [],
      "name": "symbol",
      "outputs": [
        {
          "internalType": "string",
          "name": "",
          "type": "string"
        }
      ],
      "stateMutability": "view",
      "type": "function"
    },
    {
      "inputs": [
        {
          "internalType": "uint256",
          "name": "tokenId",
          "type": "uint256"
        }
      ],
      "name": "tokenURI",
      "outputs": [
        {
          "internalType": "string",
          "name": "",
          "type": "string"
        }
      ],
      "stateMutability": "view",
      "type": "function"
    },
    {
      "inputs": [
        {
          "internalType": "address",
          "name": "from",
          "type": "address"
        },
        {
          "internalType": "address",
          "name": "to",
          "type": "address"
        },
        {
          "internalType": "uint256",
          "name": "tokenId",
          "type": "uint256"
        }
      ],
      "name": "transferFrom",
      "outputs": [],
      "stateMutability": "nonpayable",
      "type": "function"
    }
  ],
  "bytecode": "0x6080604052600060cc5534801561001557600080fd5b50600160c98190555061433d8061002d6000396000f3fe6080604052600436106101f95760003560e01c80636ecbe4af1161010d578063b88d4fde116100a0578063cd3ec1d61161006f578063cd3ec1d6146106eb578063d5c4427d14610716578063e985e9c514610741578063edca914c1461077e578063f3b7aa3914610788576101f9565b8063b88d4fde14610631578063bef4876b1461065a578063c2d864f014610685578063c87b56dd146106ae576101f9565b806395d89b41116100dc57806395d89b4114610587578063a22cb465146105b2578063af640d0f146105db578063b5bb7fb214610606576101f9565b80636ecbe4af146104cb57806370a08231146104f657806374a8d9a01461053357806384418ebc1461055e576101f9565b806339b3e8261161019057806356d234fb1161015f57806356d234fb1461040c5780635ad5dd90146104235780635d495aea1461044c5780635efafba1146104635780636352211e1461048e576101f9565b806339b3e8261461037657806342842e0e146103a1578063459cbf90146103ca5780634a4207ab146103f5576101f9565b80631a95f15f116101cc5780631a95f15f146102cc5780631f2698ab146102f757806323b872dd14610322578063244191de1461034b576101f9565b806301ffc9a7146101fe57806306fdde031461023b578063081812fc14610266578063095ea7b3146102a3575b600080fd5b34801561020a57600080fd5b5061022560048036038101906102209190612cf4565b6107a4565b6040516102329190612d3c565b60405180910390f35b34801561024757600080fd5b50610250610886565b60405161025d9190612df0565b60405180910390f35b34801561027257600080fd5b5061028d60048036038101906102889190612e48565b610918565b60405161029a9190612eb6565b60405180910390f35b3480156102af57600080fd5b506102ca60048036038101906102c59190612efd565b61095e565b005b3480156102d857600080fd5b506102e1610a75565b6040516102ee9190612f4c565b60405180910390f35b34801561030357600080fd5b5061030c610a7b565b6040516103199190612d3c565b60405180910390f35b34801561032e57600080fd5b5061034960048036038101906103449190612f67565b610a88565b005b34801561035757600080fd5b50610360610ae8565b60405161036d9190612f4c565b60405180910390f35b34801561038257600080fd5b5061038b610aee565b6040516103989190612f4c565b60405180910390f35b3480156103ad57600080fd5b506103c860048036038101906103c39190612f67565b610af4565b005b3480156103d657600080fd5b506103df610b14565b6040516103ec9190612f4c565b60405180910390f35b34801561040157600080fd5b5061040a610b1a565b005b34801561041857600080fd5b50610421610cff565b005b34801561042f57600080fd5b5061044a60048036038101906104459190612e48565b610ef3565b005b34801561045857600080fd5b50610461610fe3565b005b34801561046f57600080fd5b5061047861123d565b6040516104859190613019565b60405180910390f35b34801561049a57600080fd5b506104b560048036038101906104b09190612e48565b611263565b6040516104c29190612eb6565b60405180910390f35b3480156104d757600080fd5b506104e0611314565b6040516104ed9190612d3c565b60405180910390f35b34801561050257600080fd5b5061051d60048036038101906105189190613034565b611327565b60405161052a9190612f4c565b60405180910390f35b34801561053f57600080fd5b506105486113de565b6040516105559190612d3c565b60405180910390f35b34801561056a57600080fd5b5061058560048036038101906105809190612e48565b6113f1565b005b34801561059357600080fd5b5061059c6114f4565b6040516105a99190612df0565b60405180910390f35b3480156105be57600080fd5b506105d960048036038101906105d4919061308d565b611586565b005b3480156105e757600080fd5b506105f061159c565b6040516105fd9190612f4c565b60405180910390f35b34801561061257600080fd5b5061061b6115a2565b6040516106289190612d3c565b60405180910390f35b34801561063d57600080fd5b5061065860048036038101906106539190613202565b6115b5565b005b34801561066657600080fd5b5061066f611617565b60405161067c9190612d3c565b60405180910390f35b34801561069157600080fd5b506106ac60048036038101906106a7919061336d565b611623565b005b3480156106ba57600080fd5b506106d560048036038101906106d09190612e48565b61190b565b6040516106e29190612df0565b60405180910390f35b3480156106f757600080fd5b50610700611a1d565b60405161070d9190612f4c565b60405180910390f35b34801561072257600080fd5b5061072b611a23565b6040516107389190612f4c565b60405180910390f35b34801561074d57600080fd5b506107686004803603810190610763919061343c565b611a29565b6040516107759190612d3c565b60405180910390f35b610786611abd565b005b6107a2600480360381019061079d919061347c565b611b8e565b005b60007f80ac58cd000000000000000000000000000000000000000000000000000000007bffffffffffffffffffffffffffffffffffffffffffffffffffffffff1916827bffffffffffffffffffffffffffffffffffffffffffffffffffffffff1916148061086f57507f5b5e139f000000000000000000000000000000000000000000000000000000007bffffffffffffffffffffffffffffffffffffffffffffffffffffffff1916827bffffffffffffffffffffffffffffffffffffffffffffffffffffffff1916145b8061087f575061087e82611c96565b5b9050919050565b606060658054610895906134f8565b80601f01602080910402602001604051908101604052809291908181526020018280546108c1906134f8565b801561090e5780601f106108e35761010080835404028352916020019161090e565b820191906000526020600020905b8154815290600101906020018083116108f157829003601f168201915b5050505050905090565b600061092382611d00565b6069600083815260200190815260200160002060009054906101000a900473ffffffffffffffffffffffffffffffffffffffff169050919050565b600061096982611263565b90508073ffffffffffffffffffffffffffffffffffffffff168373ffffffffffffffffffffffffffffffffffffffff16036109d9576040517f08c379a00000000000000000000000000000000000000000000000000000000081526004016109d09061359b565b60405180910390fd5b8073ffffffffffffffffffffffffffffffffffffffff166109f8611d4b565b73ffffffffffffffffffffffffffffffffffffffff161480610a275750610a2681610a21611d4b565b611a29565b5b610a66576040517f08c379a0000000000000000000000000000000000000000000000000000000008152600401610a5d9061362d565b60405180910390fd5b610a708383611d53565b505050565b60cb5481565b600060cd54431015905090565b610a99610a93611d4b565b82611e0c565b610ad8576040517f08c379a0000000000000000000000000000000000000000000000000000000008152600401610acf906136bf565b60405180910390fd5b610ae3838383611ea1565b505050565b60cf5481565b60cd5481565b610b0f838383604051806020016040528060008152506115b5565b505050565b60d15481565b600260c95403610b5f576040517f08c379a0000000000000000000000000000000000000000000000000000000008152600401610b569061372b565b60405180910390fd5b600260c98190555060ce5480431015610ba4576040517fa3b8915f00000000000000000000000000000000000000000000000000000000815260040160405180910390fd5b6000610bb160d054611263565b90508073ffffffffffffffffffffffffffffffffffffffff163373ffffffffffffffffffffffffffffffffffffffff1614610c18576040517f82b4290000000000000000000000000000000000000000000000000000000000815260040160405180910390fd5b60d260029054906101000a900460ff1615610c3257600080fd5b600160d260026101000a81548160ff02191690831515021790555060003373ffffffffffffffffffffffffffffffffffffffff1660d154604051610c759061377c565b60006040518083038185875af1925050503d8060008114610cb2576040519150601f19603f3d011682016040523d82523d6000602084013e610cb7565b606091505b5050905080610cf2576040517fbf961a2800000000000000000000000000000000000000000000000000000000815260040160405180910390fd5b505050600160c981905550565b600260c95403610d44576040517f08c379a0000000000000000000000000000000000000000000000000000000008152600401610d3b9061372b565b60405180910390fd5b600260c98190555060ce5480431015610d89576040517fa3b8915f00000000000000000000000000000000000000000000000000000000815260040160405180910390fd5b6000610d9660cf54611263565b90508073ffffffffffffffffffffffffffffffffffffffff163373ffffffffffffffffffffffffffffffffffffffff1614610dfd576040517f82b4290000000000000000000000000000000000000000000000000000000000815260040160405180910390fd5b600060d260029054906101000a900460ff1615610e1c57479050610e42565b60d260029054906101000a900460ff16610e415760d15447610e3e91906137c0565b90505b5b60003373ffffffffffffffffffffffffffffffffffffffff1682604051610e689061377c565b60006040518083038185875af1925050503d8060008114610ea5576040519150601f19603f3d011682016040523d82523d6000602084013e610eaa565b606091505b5050905080610ee5576040517fbf961a2800000000000000000000000000000000000000000000000000000000815260040160405180910390fd5b50505050600160c981905550565b60ca60009054906101000a900473ffffffffffffffffffffffffffffffffffffffff1673ffffffffffffffffffffffffffffffffffffffff163373ffffffffffffffffffffffffffffffffffffffff1614610f7a576040517f82b4290000000000000000000000000000000000000000000000000000000000815260040160405180910390fd5b600060cc5482610f8a9190613823565b90508060cf8190555080610f9d82611263565b73ffffffffffffffffffffffffffffffffffffffff167f5d49e2a9a4220e2029681bf7108cfe1b79272c60978eeaa5f2595fb8178c101460405160405180910390a35050565b600260ce5460cd54610ff59190613854565b610fff91906138aa565b80431015611039576040517fa3b8915f00000000000000000000000000000000000000000000000000000000815260040160405180910390fd5b60ce5443108015611056575060d260009054906101000a900460ff165b8061107b575060ce54431015801561107a575060d260019054906101000a900460ff165b5b156110b2576040517f47d0ee1000000000000000000000000000000000000000000000000000000000815260040160405180910390fd5b6110ba612107565b60ce544310156111815760ca60009054906101000a900473ffffffffffffffffffffffffffffffffffffffff1673ffffffffffffffffffffffffffffffffffffffff1663d305843c6040518163ffffffff1660e01b815260040161111d90613927565b6020604051808303816000875af115801561113c573d6000803e3d6000fd5b505050506040513d601f19601f82011682018060405250810190611160919061397d565b50600160d260006101000a81548160ff02191690831515021790555061123a565b60ca60009054906101000a900473ffffffffffffffffffffffffffffffffffffffff1673ffffffffffffffffffffffffffffffffffffffff1663d305843c6040518163ffffffff1660e01b81526004016111da906139f6565b6020604051808303816000875af11580156111f9573d6000803e3d6000fd5b505050506040513d601f19601f8201168201806040525081019061121d919061397d565b50600160d260016101000a81548160ff0219169083151502179055505b50565b60ca60009054906101000a900473ffffffffffffffffffffffffffffffffffffffff1681565b6000806067600084815260200190815260200160002060009054906101000a900473ffffffffffffffffffffffffffffffffffffffff169050600073ffffffffffffffffffffffffffffffffffffffff168173ffffffffffffffffffffffffffffffffffffffff160361130b576040517f08c379a000000000000000000000000000000000000000000000000000000000815260040161130290613a62565b60405180910390fd5b80915050919050565b60d260029054906101000a900460ff1681565b60008073ffffffffffffffffffffffffffffffffffffffff168273ffffffffffffffffffffffffffffffffffffffff1603611397576040517f08c379a000000000000000000000000000000000000000000000000000000000815260040161138e90613af4565b60405180910390fd5b606860008373ffffffffffffffffffffffffffffffffffffffff1673ffffffffffffffffffffffffffffffffffffffff168152602001908152602001600020549050919050565b60d260009054906101000a900460ff1681565b60ca60009054906101000a900473ffffffffffffffffffffffffffffffffffffffff1673ffffffffffffffffffffffffffffffffffffffff163373ffffffffffffffffffffffffffffffffffffffff1614611478576040517f82b4290000000000000000000000000000000000000000000000000000000000815260040160405180910390fd5b600060cc54826114889190613823565b90508060d08190555060024761149e91906138aa565b60d181905550806114ae82611263565b73ffffffffffffffffffffffffffffffffffffffff167f5d49e2a9a4220e2029681bf7108cfe1b79272c60978eeaa5f2595fb8178c101460405160405180910390a35050565b606060668054611503906134f8565b80601f016020809104026020016040519081016040528092919081815260200182805461152f906134f8565b801561157c5780601f106115515761010080835404028352916020019161157c565b820191906000526020600020905b81548152906001019060200180831161155f57829003601f168201915b5050505050905090565b611598611591611d4b565b8383612313565b5050565b60cc5481565b60d260019054906101000a900460ff1681565b6115c66115c0611d4b565b83611e0c565b611605576040517f08c379a00000000000000000000000000000000000000000000000000000000081526004016115fc906136bf565b60405180910390fd5b6116118484848461247f565b50505050565b600060ce544311905090565b60008060019054906101000a900460ff161590508080156116545750600160008054906101000a900460ff1660ff16105b806116815750611663306124db565b1580156116805750600160008054906101000a900460ff1660ff16145b5b6116c0576040517f08c379a00000000000000000000000000000000000000000000000000000000081526004016116b790613b86565b60405180910390fd5b60016000806101000a81548160ff021916908360ff16021790555080156116fd576001600060016101000a81548160ff0219169083151502179055505b60008989905014806117125750600087879050145b8061172f57506000836fffffffffffffffffffffffffffffffff16145b806117435750438567ffffffffffffffff16105b8061176257508467ffffffffffffffff168467ffffffffffffffff1611155b15611799576040517fb4fa3fb300000000000000000000000000000000000000000000000000000000815260040160405180910390fd5b61182b89898080601f016020809104026020016040519081016040528093929190818152602001838380828437600081840152601f19601f8201169050808301925050505050505088888080601f016020809104026020016040519081016040528093929190818152602001838380828437600081840152601f19601f820116905080830192505050505050506124fe565b8467ffffffffffffffff1660cd819055508367ffffffffffffffff1660ce81905550826fffffffffffffffffffffffffffffffff1660cb819055508160ca60006101000a81548173ffffffffffffffffffffffffffffffffffffffff021916908373ffffffffffffffffffffffffffffffffffffffff16021790555080156119005760008060016101000a81548160ff0219169083151502179055507f7f26b83ff96e1f2b6a682f133852f6798a09c465da95921460cefb384740249860016040516118f79190613bee565b60405180910390a15b505050505050505050565b606061191682611d00565b6000609760008481526020019081526020016000208054611936906134f8565b80601f0160208091040260200160405190810160405280929190818152602001828054611962906134f8565b80156119af5780601f10611984576101008083540402835291602001916119af565b820191906000526020600020905b81548152906001019060200180831161199257829003601f168201915b5050505050905060006119c061257f565b905060008151036119d5578192505050611a18565b600082511115611a0a5780826040516020016119f2929190613c45565b60405160208183030381529060405292505050611a18565b611a1384612596565b925050505b919050565b60ce5481565b60d05481565b6000606a60008473ffffffffffffffffffffffffffffffffffffffff1673ffffffffffffffffffffffffffffffffffffffff16815260200190815260200160002060008373ffffffffffffffffffffffffffffffffffffffff1673ffffffffffffffffffffffffffffffffffffffff16815260200190815260200160002060009054906101000a900460ff16905092915050565b60cd5480431015611afa576040517fa3b8915f00000000000000000000000000000000000000000000000000000000815260040160405180910390fd5b60ce5480431115611b37576040517fa3b8915f00000000000000000000000000000000000000000000000000000000815260040160405180910390fd5b60cb543414611b72576040517f2c5211c600000000000000000000000000000000000000000000000000000000815260040160405180910390fd5b611b8a604051806020016040528060008152506125fe565b5050565b60cd5480431015611bcb576040517fa3b8915f00000000000000000000000000000000000000000000000000000000815260040160405180910390fd5b60ce5480431115611c08576040517fa3b8915f00000000000000000000000000000000000000000000000000000000815260040160405180910390fd5b60cb543414611c43576040517f2c5211c600000000000000000000000000000000000000000000000000000000815260040160405180910390fd5b611c9084848080601f016020809104026020016040519081016040528093929190818152602001838380828437600081840152601f19601f820116905080830192505050505050506125fe565b50505050565b60007f01ffc9a7000000000000000000000000000000000000000000000000000000007bffffffffffffffffffffffffffffffffffffffffffffffffffffffff1916827bffffffffffffffffffffffffffffffffffffffffffffffffffffffff1916149050919050565b611d098161263b565b611d48576040517f08c379a0000000000000000000000000000000000000000000000000000000008152600401611d3f90613a62565b60405180910390fd5b50565b600033905090565b816069600083815260200190815260200160002060006101000a81548173ffffffffffffffffffffffffffffffffffffffff021916908373ffffffffffffffffffffffffffffffffffffffff160217905550808273ffffffffffffffffffffffffffffffffffffffff16611dc683611263565b73ffffffffffffffffffffffffffffffffffffffff167f8c5be1e5ebec7d5bd14f71427d1e84f3dd0314c0f7b2291e5b200ac8c7c3b92560405160405180910390a45050565b600080611e1883611263565b90508073ffffffffffffffffffffffffffffffffffffffff168473ffffffffffffffffffffffffffffffffffffffff161480611e5a5750611e598185611a29565b5b80611e9857508373ffffffffffffffffffffffffffffffffffffffff16611e8084610918565b73ffffffffffffffffffffffffffffffffffffffff16145b91505092915050565b8273ffffffffffffffffffffffffffffffffffffffff16611ec182611263565b73ffffffffffffffffffffffffffffffffffffffff1614611f17576040517f08c379a0000000000000000000000000000000000000000000000000000000008152600401611f0e90613cdb565b60405180910390fd5b600073ffffffffffffffffffffffffffffffffffffffff168273ffffffffffffffffffffffffffffffffffffffff1603611f86576040517f08c379a0000000000000000000000000000000000000000000000000000000008152600401611f7d90613d6d565b60405180910390fd5b611f918383836126a7565b611f9c600082611d53565b6001606860008573ffffffffffffffffffffffffffffffffffffffff1673ffffffffffffffffffffffffffffffffffffffff1681526020019081526020016000206000828254611fec91906137c0565b925050819055506001606860008473ffffffffffffffffffffffffffffffffffffffff1673ffffffffffffffffffffffffffffffffffffffff16815260200190815260200160002060008282546120439190613854565b92505081905550816067600083815260200190815260200160002060006101000a81548173ffffffffffffffffffffffffffffffffffffffff021916908373ffffffffffffffffffffffffffffffffffffffff160217905550808273ffffffffffffffffffffffffffffffffffffffff168473ffffffffffffffffffffffffffffffffffffffff167fddf252ad1be2c89b69c2b068fc378daa952ba7f163c4a11628f55a4df523b3ef60405160405180910390a46121028383836126ac565b505050565b600060ca60009054906101000a900473ffffffffffffffffffffffffffffffffffffffff1673ffffffffffffffffffffffffffffffffffffffff1663eedac3a66040518163ffffffff1660e01b8152600401602060405180830381865afa158015612176573d6000803e3d6000fd5b505050506040513d601f19601f8201168201806040525081019061219a9190613dcb565b9050600060ca60009054906101000a900473ffffffffffffffffffffffffffffffffffffffff1673ffffffffffffffffffffffffffffffffffffffff1663ddca3f436040518163ffffffff1660e01b8152600401602060405180830381865afa15801561220b573d6000803e3d6000fd5b505050506040513d601f19601f8201168201806040525081019061222f9190613e0d565b905060008273ffffffffffffffffffffffffffffffffffffffff166323b872dd3360ca60009054906101000a900473ffffffffffffffffffffffffffffffffffffffff16856040518463ffffffff1660e01b815260040161229293929190613e3a565b6020604051808303816000875af11580156122b1573d6000803e3d6000fd5b505050506040513d601f19601f820116820180604052508101906122d59190613e86565b90508061230e576040517fbf961a2800000000000000000000000000000000000000000000000000000000815260040160405180910390fd5b505050565b8173ffffffffffffffffffffffffffffffffffffffff168373ffffffffffffffffffffffffffffffffffffffff1603612381576040517f08c379a000000000000000000000000000000000000000000000000000000000815260040161237890613eff565b60405180910390fd5b80606a60008573ffffffffffffffffffffffffffffffffffffffff1673ffffffffffffffffffffffffffffffffffffffff16815260200190815260200160002060008473ffffffffffffffffffffffffffffffffffffffff1673ffffffffffffffffffffffffffffffffffffffff16815260200190815260200160002060006101000a81548160ff0219169083151502179055508173ffffffffffffffffffffffffffffffffffffffff168373ffffffffffffffffffffffffffffffffffffffff167f17307eab39ab6107e8899845ad3d59bd9653f200f220920489ca2b5937696c31836040516124729190612d3c565b60405180910390a3505050565b61248a848484611ea1565b612496848484846126b1565b6124d5576040517f08c379a00000000000000000000000000000000000000000000000000000000081526004016124cc90613f91565b60405180910390fd5b50505050565b6000808273ffffffffffffffffffffffffffffffffffffffff163b119050919050565b600060019054906101000a900460ff1661254d576040517f08c379a000000000000000000000000000000000000000000000000000000000815260040161254490614023565b60405180910390fd5b8160659080519060200190612563929190612be5565b50806066908051906020019061257a929190612be5565b505050565b606060405180602001604052806000815250905090565b60606125a182611d00565b60006125ab61257f565b905060008151116125cb57604051806020016040528060008152506125f6565b806125d584612838565b6040516020016125e6929190613c45565b6040516020818303038152906040525b915050919050565b61260a3360cc54612998565b60008151146126205761261f60cc5482612b71565b5b60cc600081548092919061263390614043565b919050555050565b60008073ffffffffffffffffffffffffffffffffffffffff166067600084815260200190815260200160002060009054906101000a900473ffffffffffffffffffffffffffffffffffffffff1673ffffffffffffffffffffffffffffffffffffffff1614159050919050565b505050565b505050565b60006126d28473ffffffffffffffffffffffffffffffffffffffff166124db565b1561282b578373ffffffffffffffffffffffffffffffffffffffff1663150b7a026126fb611d4b565b8786866040518563ffffffff1660e01b815260040161271d94939291906140e0565b6020604051808303816000875af192505050801561275957506040513d601f19601f820116820180604052508101906127569190614141565b60015b6127db573d8060008114612789576040519150601f19603f3d011682016040523d82523d6000602084013e61278e565b606091505b5060008151036127d3576040517f08c379a00000000000000000000000000000000000000000000000000000000081526004016127ca90613f91565b60405180910390fd5b805181602001fd5b63150b7a0260e01b7bffffffffffffffffffffffffffffffffffffffffffffffffffffffff1916817bffffffffffffffffffffffffffffffffffffffffffffffffffffffff191614915050612830565b600190505b949350505050565b60606000820361287f576040518060400160405280600181526020017f30000000000000000000000000000000000000000000000000000000000000008152509050612993565b600082905060005b600082146128b157808061289a90614043565b915050600a826128aa91906138aa565b9150612887565b60008167ffffffffffffffff8111156128cd576128cc6130d7565b5b6040519080825280601f01601f1916602001820160405280156128ff5781602001600182028036833780820191505090505b5090505b6000851461298c5760018261291891906137c0565b9150600a856129279190613823565b60306129339190613854565b60f81b8183815181106129495761294861416e565b5b60200101907effffffffffffffffffffffffffffffffffffffffffffffffffffffffffffff1916908160001a905350600a8561298591906138aa565b9450612903565b8093505050505b919050565b600073ffffffffffffffffffffffffffffffffffffffff168273ffffffffffffffffffffffffffffffffffffffff1603612a07576040517f08c379a00000000000000000000000000000000000000000000000000000000081526004016129fe906141e9565b60405180910390fd5b612a108161263b565b15612a50576040517f08c379a0000000000000000000000000000000000000000000000000000000008152600401612a4790614255565b60405180910390fd5b612a5c600083836126a7565b6001606860008473ffffffffffffffffffffffffffffffffffffffff1673ffffffffffffffffffffffffffffffffffffffff1681526020019081526020016000206000828254612aac9190613854565b92505081905550816067600083815260200190815260200160002060006101000a81548173ffffffffffffffffffffffffffffffffffffffff021916908373ffffffffffffffffffffffffffffffffffffffff160217905550808273ffffffffffffffffffffffffffffffffffffffff16600073ffffffffffffffffffffffffffffffffffffffff167fddf252ad1be2c89b69c2b068fc378daa952ba7f163c4a11628f55a4df523b3ef60405160405180910390a4612b6d600083836126ac565b5050565b612b7a8261263b565b612bb9576040517f08c379a0000000000000000000000000000000000000000000000000000000008152600401612bb0906142e7565b60405180910390fd5b80609760008481526020019081526020016000209080519060200190612be0929190612be5565b505050565b828054612bf1906134f8565b90600052602060002090601f016020900481019282612c135760008555612c5a565b82601f10612c2c57805160ff1916838001178555612c5a565b82800160010185558215612c5a579182015b82811115612c59578251825591602001919060010190612c3e565b5b509050612c679190612c6b565b5090565b5b80821115612c84576000816000905550600101612c6c565b5090565b6000604051905090565b600080fd5b600080fd5b60007fffffffff0000000000000000000000000000000000000000000000000000000082169050919050565b612cd181612c9c565b8114612cdc57600080fd5b50565b600081359050612cee81612cc8565b92915050565b600060208284031215612d0a57612d09612c92565b5b6000612d1884828501612cdf565b91505092915050565b60008115159050919050565b612d3681612d21565b82525050565b6000602082019050612d516000830184612d2d565b92915050565b600081519050919050565b600082825260208201905092915050565b60005b83811015612d91578082015181840152602081019050612d76565b83811115612da0576000848401525b50505050565b6000601f19601f8301169050919050565b6000612dc282612d57565b612dcc8185612d62565b9350612ddc818560208601612d73565b612de581612da6565b840191505092915050565b60006020820190508181036000830152612e0a8184612db7565b905092915050565b6000819050919050565b612e2581612e12565b8114612e3057600080fd5b50565b600081359050612e4281612e1c565b92915050565b600060208284031215612e5e57612e5d612c92565b5b6000612e6c84828501612e33565b91505092915050565b600073ffffffffffffffffffffffffffffffffffffffff82169050919050565b6000612ea082612e75565b9050919050565b612eb081612e95565b82525050565b6000602082019050612ecb6000830184612ea7565b92915050565b612eda81612e95565b8114612ee557600080fd5b50565b600081359050612ef781612ed1565b92915050565b60008060408385031215612f1457612f13612c92565b5b6000612f2285828601612ee8565b9250506020612f3385828601612e33565b9150509250929050565b612f4681612e12565b82525050565b6000602082019050612f616000830184612f3d565b92915050565b600080600060608486031215612f8057612f7f612c92565b5b6000612f8e86828701612ee8565b9350506020612f9f86828701612ee8565b9250506040612fb086828701612e33565b9150509250925092565b6000819050919050565b6000612fdf612fda612fd584612e75565b612fba565b612e75565b9050919050565b6000612ff182612fc4565b9050919050565b600061300382612fe6565b9050919050565b61301381612ff8565b82525050565b600060208201905061302e600083018461300a565b92915050565b60006020828403121561304a57613049612c92565b5b600061305884828501612ee8565b91505092915050565b61306a81612d21565b811461307557600080fd5b50565b60008135905061308781613061565b92915050565b600080604083850312156130a4576130a3612c92565b5b60006130b285828601612ee8565b92505060206130c385828601613078565b9150509250929050565b600080fd5b600080fd5b7f4e487b7100000000000000000000000000000000000000000000000000000000600052604160045260246000fd5b61310f82612da6565b810181811067ffffffffffffffff8211171561312e5761312d6130d7565b5b80604052505050565b6000613141612c88565b905061314d8282613106565b919050565b600067ffffffffffffffff82111561316d5761316c6130d7565b5b61317682612da6565b9050602081019050919050565b82818337600083830152505050565b60006131a56131a084613152565b613137565b9050828152602081018484840111156131c1576131c06130d2565b5b6131cc848285613183565b509392505050565b600082601f8301126131e9576131e86130cd565b5b81356131f9848260208601613192565b91505092915050565b6000806000806080858703121561321c5761321b612c92565b5b600061322a87828801612ee8565b945050602061323b87828801612ee8565b935050604061324c87828801612e33565b925050606085013567ffffffffffffffff81111561326d5761326c612c97565b5b613279878288016131d4565b91505092959194509250565b600080fd5b600080fd5b60008083601f8401126132a5576132a46130cd565b5b8235905067ffffffffffffffff8111156132c2576132c1613285565b5b6020830191508360018202830111156132de576132dd61328a565b5b9250929050565b600067ffffffffffffffff82169050919050565b613302816132e5565b811461330d57600080fd5b50565b60008135905061331f816132f9565b92915050565b60006fffffffffffffffffffffffffffffffff82169050919050565b61334a81613325565b811461335557600080fd5b50565b60008135905061336781613341565b92915050565b60008060008060008060008060c0898b03121561338d5761338c612c92565b5b600089013567ffffffffffffffff8111156133ab576133aa612c97565b5b6133b78b828c0161328f565b9850985050602089013567ffffffffffffffff8111156133da576133d9612c97565b5b6133e68b828c0161328f565b965096505060406133f98b828c01613310565b945050606061340a8b828c01613310565b935050608061341b8b828c01613358565b92505060a061342c8b828c01612ee8565b9150509295985092959890939650565b6000806040838503121561345357613452612c92565b5b600061346185828601612ee8565b925050602061347285828601612ee8565b9150509250929050565b6000806020838503121561349357613492612c92565b5b600083013567ffffffffffffffff8111156134b1576134b0612c97565b5b6134bd8582860161328f565b92509250509250929050565b7f4e487b7100000000000000000000000000000000000000000000000000000000600052602260045260246000fd5b6000600282049050600182168061351057607f821691505b602082108103613523576135226134c9565b5b50919050565b7f4552433732313a20617070726f76616c20746f2063757272656e74206f776e6560008201527f7200000000000000000000000000000000000000000000000000000000000000602082015250565b6000613585602183612d62565b915061359082613529565b604082019050919050565b600060208201905081810360008301526135b481613578565b9050919050565b7f4552433732313a20617070726f76652063616c6c6572206973206e6f7420746f60008201527f6b656e206f776e6572206e6f7220617070726f76656420666f7220616c6c0000602082015250565b6000613617603e83612d62565b9150613622826135bb565b604082019050919050565b600060208201905081810360008301526136468161360a565b9050919050565b7f4552433732313a2063616c6c6572206973206e6f7420746f6b656e206f776e6560008201527f72206e6f7220617070726f766564000000000000000000000000000000000000602082015250565b60006136a9602e83612d62565b91506136b48261364d565b604082019050919050565b600060208201905081810360008301526136d88161369c565b9050919050565b7f5265656e7472616e637947756172643a207265656e7472616e742063616c6c00600082015250565b6000613715601f83612d62565b9150613720826136df565b602082019050919050565b6000602082019050818103600083015261374481613708565b9050919050565b600081905092915050565b50565b600061376660008361374b565b915061377182613756565b600082019050919050565b600061378782613759565b9150819050919050565b7f4e487b7100000000000000000000000000000000000000000000000000000000600052601160045260246000fd5b60006137cb82612e12565b91506137d683612e12565b9250828210156137e9576137e8613791565b5b828203905092915050565b7f4e487b7100000000000000000000000000000000000000000000000000000000600052601260045260246000fd5b600061382e82612e12565b915061383983612e12565b925082613849576138486137f4565b5b828206905092915050565b600061385f82612e12565b915061386a83612e12565b9250827fffffffffffffffffffffffffffffffffffffffffffffffffffffffffffffffff0382111561389f5761389e613791565b5b828201905092915050565b60006138b582612e12565b91506138c083612e12565b9250826138d0576138cf6137f4565b5b828204905092915050565b7f7069636b536d616c6c57696e6e65722875696e74323536290000000000000000600082015250565b6000613911601883612d62565b915061391c826138db565b602082019050919050565b6000602082019050818103600083015261394081613904565b9050919050565b6000819050919050565b61395a81613947565b811461396557600080fd5b50565b60008151905061397781613951565b92915050565b60006020828403121561399357613992612c92565b5b60006139a184828501613968565b91505092915050565b7f7069636b42696757696e6e65722875696e743235362900000000000000000000600082015250565b60006139e0601683612d62565b91506139eb826139aa565b602082019050919050565b60006020820190508181036000830152613a0f816139d3565b9050919050565b7f4552433732313a20696e76616c696420746f6b656e2049440000000000000000600082015250565b6000613a4c601883612d62565b9150613a5782613a16565b602082019050919050565b60006020820190508181036000830152613a7b81613a3f565b9050919050565b7f4552433732313a2061646472657373207a65726f206973206e6f74206120766160008201527f6c6964206f776e65720000000000000000000000000000000000000000000000602082015250565b6000613ade602983612d62565b9150613ae982613a82565b604082019050919050565b60006020820190508181036000830152613b0d81613ad1565b9050919050565b7f496e697469616c697a61626c653a20636f6e747261637420697320616c72656160008201527f647920696e697469616c697a6564000000000000000000000000000000000000602082015250565b6000613b70602e83612d62565b9150613b7b82613b14565b604082019050919050565b60006020820190508181036000830152613b9f81613b63565b9050919050565b6000819050919050565b600060ff82169050919050565b6000613bd8613bd3613bce84613ba6565b612fba565b613bb0565b9050919050565b613be881613bbd565b82525050565b6000602082019050613c036000830184613bdf565b92915050565b600081905092915050565b6000613c1f82612d57565b613c298185613c09565b9350613c39818560208601612d73565b80840191505092915050565b6000613c518285613c14565b9150613c5d8284613c14565b91508190509392505050565b7f4552433732313a207472616e736665722066726f6d20696e636f72726563742060008201527f6f776e6572000000000000000000000000000000000000000000000000000000602082015250565b6000613cc5602583612d62565b9150613cd082613c69565b604082019050919050565b60006020820190508181036000830152613cf481613cb8565b9050919050565b7f4552433732313a207472616e7366657220746f20746865207a65726f2061646460008201527f7265737300000000000000000000000000000000000000000000000000000000602082015250565b6000613d57602483612d62565b9150613d6282613cfb565b604082019050919050565b60006020820190508181036000830152613d8681613d4a565b9050919050565b6000613d9882612e95565b9050919050565b613da881613d8d565b8114613db357600080fd5b50565b600081519050613dc581613d9f565b92915050565b600060208284031215613de157613de0612c92565b5b6000613def84828501613db6565b91505092915050565b600081519050613e0781612e1c565b92915050565b600060208284031215613e2357613e22612c92565b5b6000613e3184828501613df8565b91505092915050565b6000606082019050613e4f6000830186612ea7565b613e5c6020830185612ea7565b613e696040830184612f3d565b949350505050565b600081519050613e8081613061565b92915050565b600060208284031215613e9c57613e9b612c92565b5b6000613eaa84828501613e71565b91505092915050565b7f4552433732313a20617070726f766520746f2063616c6c657200000000000000600082015250565b6000613ee9601983612d62565b9150613ef482613eb3565b602082019050919050565b60006020820190508181036000830152613f1881613edc565b9050919050565b7f4552433732313a207472616e7366657220746f206e6f6e20455243373231526560008201527f63656976657220696d706c656d656e7465720000000000000000000000000000602082015250565b6000613f7b603283612d62565b9150613f8682613f1f565b604082019050919050565b60006020820190508181036000830152613faa81613f6e565b9050919050565b7f496e697469616c697a61626c653a20636f6e7472616374206973206e6f74206960008201527f6e697469616c697a696e67000000000000000000000000000000000000000000602082015250565b600061400d602b83612d62565b915061401882613fb1565b604082019050919050565b6000602082019050818103600083015261403c81614000565b9050919050565b600061404e82612e12565b91507fffffffffffffffffffffffffffffffffffffffffffffffffffffffffffffffff82036140805761407f613791565b5b600182019050919050565b600081519050919050565b600082825260208201905092915050565b60006140b28261408b565b6140bc8185614096565b93506140cc818560208601612d73565b6140d581612da6565b840191505092915050565b60006080820190506140f56000830187612ea7565b6141026020830186612ea7565b61410f6040830185612f3d565b818103606083015261412181846140a7565b905095945050505050565b60008151905061413b81612cc8565b92915050565b60006020828403121561415757614156612c92565b5b60006141658482850161412c565b91505092915050565b7f4e487b7100000000000000000000000000000000000000000000000000000000600052603260045260246000fd5b7f4552433732313a206d696e7420746f20746865207a65726f2061646472657373600082015250565b60006141d3602083612d62565b91506141de8261419d565b602082019050919050565b60006020820190508181036000830152614202816141c6565b9050919050565b7f4552433732313a20746f6b656e20616c7265616479206d696e74656400000000600082015250565b600061423f601c83612d62565b915061424a82614209565b602082019050919050565b6000602082019050818103600083015261426e81614232565b9050919050565b7f45524337323155524953746f726167653a2055524920736574206f66206e6f6e60008201527f6578697374656e7420746f6b656e000000000000000000000000000000000000602082015250565b60006142d1602e83612d62565b91506142dc82614275565b604082019050919050565b60006020820190508181036000830152614300816142c4565b905091905056fea2646970667358221220c838f81b2e36b9cac0267ea9235c2284b54cb3e3e4e615dae3170db1252b536564736f6c634300080d0033",
  "linkReferences": {},
  "deployedLinkReferences": {}
}