{
  "_format": "hh-sol-artifact-1",
  "contractName": "WinnerPicker",
  "sourceName": "contracts/WinnerPicker.sol",
  "abi": [
    {
      "inputs": [
        {
          "internalType": "address",
          "name": "vrfCoordinator_",
          "type": "address"
        },
        {
          "internalType": "address",
          "name": "link_",
          "type": "address"
        },
        {
          "internalType": "bytes32",
          "name": "keyHash_",
          "type": "bytes32"
        }
      ],
      "stateMutability": "nonpayable",
      "type": "constructor"
    },
    {
      "inputs": [],
      "name": "LINK_TOKEN",
      "outputs": [
        {
          "internalType": "contract LinkTokenInterface",
          "name": "",
          "type": "address"
        }
      ],
      "stateMutability": "view",
      "type": "function"
    },
    {
      "inputs": [],
      "name": "fee",
      "outputs": [
        {
          "internalType": "uint256",
          "name": "",
          "type": "uint256"
        }
      ],
      "stateMutability": "view",
      "type": "function"
    },
    {
      "inputs": [
        {
          "internalType": "string",
          "name": "callbackSignature",
          "type": "string"
        }
      ],
      "name": "getRandomNumber",
      "outputs": [
        {
          "internalType": "bytes32",
          "name": "requestId",
          "type": "bytes32"
        }
      ],
      "stateMutability": "nonpayable",
      "type": "function"
    },
    {
      "inputs": [
        {
          "internalType": "bytes32",
          "name": "requestId",
          "type": "bytes32"
        },
        {
          "internalType": "uint256",
          "name": "randomness",
          "type": "uint256"
        }
      ],
      "name": "rawFulfillRandomness",
      "outputs": [],
      "stateMutability": "nonpayable",
      "type": "function"
    }
  ],
  "bytecode": "0x6101006040523480156200001257600080fd5b5060405162001045380380620010458339818101604052810190620000389190620001d0565b82828173ffffffffffffffffffffffffffffffffffffffff1660a08173ffffffffffffffffffffffffffffffffffffffff16815250508073ffffffffffffffffffffffffffffffffffffffff1660808173ffffffffffffffffffffffffffffffffffffffff168152505050508273ffffffffffffffffffffffffffffffffffffffff1660e08173ffffffffffffffffffffffffffffffffffffffff1681525050806001819055508173ffffffffffffffffffffffffffffffffffffffff1660c08173ffffffffffffffffffffffffffffffffffffffff16815250506703782dace9d900006002819055505050506200022c565b600080fd5b600073ffffffffffffffffffffffffffffffffffffffff82169050919050565b60006200015d8262000130565b9050919050565b6200016f8162000150565b81146200017b57600080fd5b50565b6000815190506200018f8162000164565b92915050565b6000819050919050565b620001aa8162000195565b8114620001b657600080fd5b50565b600081519050620001ca816200019f565b92915050565b600080600060608486031215620001ec57620001eb6200012b565b5b6000620001fc868287016200017e565b93505060206200020f868287016200017e565b92505060406200022286828701620001b9565b9150509250925092565b60805160a05160c05160e051610ddc6200026960003960005050600061020e01526000818160db01526103b4015260006103780152610ddc6000f3fe608060405234801561001057600080fd5b506004361061004c5760003560e01c806394985ddd14610051578063d305843c1461006d578063ddca3f431461009d578063eedac3a6146100bb575b600080fd5b61006b60048036038101906100669190610656565b6100d9565b005b610087600480360381019061008291906107dc565b610175565b6040516100949190610834565b60405180910390f35b6100a5610206565b6040516100b2919061085e565b60405180910390f35b6100c361020c565b6040516100d091906108f8565b60405180910390f35b7f000000000000000000000000000000000000000000000000000000000000000073ffffffffffffffffffffffffffffffffffffffff163373ffffffffffffffffffffffffffffffffffffffff1614610167576040517f08c379a000000000000000000000000000000000000000000000000000000000815260040161015e90610970565b60405180910390fd5b6101718282610230565b5050565b6000610185600154600254610374565b9050336003600083815260200190815260200160002060006101000a81548173ffffffffffffffffffffffffffffffffffffffff021916908373ffffffffffffffffffffffffffffffffffffffff16021790555081600460008381526020019081526020016000209080519060200190610200929190610533565b50919050565b60025481565b7f000000000000000000000000000000000000000000000000000000000000000081565b60006003600084815260200190815260200160002060009054906101000a900473ffffffffffffffffffffffffffffffffffffffff1673ffffffffffffffffffffffffffffffffffffffff1660046000858152602001908152602001600020836040516024016102a0919061085e565b604051602081830303815290604052906040516102bd9190610a8f565b60405180910390207bffffffffffffffffffffffffffffffffffffffffffffffffffffffff19166020820180517bffffffffffffffffffffffffffffffffffffffffffffffffffffffff838183161783525050505060405161031f9190610b20565b6000604051808303816000865af19150503d806000811461035c576040519150601f19603f3d011682016040523d82523d6000602084013e610361565b606091505b505090508061036f57600080fd5b505050565b60007f000000000000000000000000000000000000000000000000000000000000000073ffffffffffffffffffffffffffffffffffffffff16634000aea07f0000000000000000000000000000000000000000000000000000000000000000848660006040516020016103e8929190610b37565b6040516020818303038152906040526040518463ffffffff1660e01b815260040161041593929190610bcb565b6020604051808303816000875af1158015610434573d6000803e3d6000fd5b505050506040513d601f19601f820116820180604052508101906104589190610c41565b50600061047a84600030600080898152602001908152602001600020546104c4565b905060016000808681526020019081526020016000205461049b9190610c9d565b600080868152602001908152602001600020819055506104bb8482610500565b91505092915050565b6000848484846040516020016104dd9493929190610cf3565b6040516020818303038152906040528051906020012060001c9050949350505050565b60008282604051602001610515929190610d7a565b60405160208183030381529060405280519060200120905092915050565b82805461053f906109bf565b90600052602060002090601f01602090048101928261056157600085556105a8565b82601f1061057a57805160ff19168380011785556105a8565b828001600101855582156105a8579182015b828111156105a757825182559160200191906001019061058c565b5b5090506105b591906105b9565b5090565b5b808211156105d25760008160009055506001016105ba565b5090565b6000604051905090565b600080fd5b600080fd5b6000819050919050565b6105fd816105ea565b811461060857600080fd5b50565b60008135905061061a816105f4565b92915050565b6000819050919050565b61063381610620565b811461063e57600080fd5b50565b6000813590506106508161062a565b92915050565b6000806040838503121561066d5761066c6105e0565b5b600061067b8582860161060b565b925050602061068c85828601610641565b9150509250929050565b600080fd5b600080fd5b6000601f19601f8301169050919050565b7f4e487b7100000000000000000000000000000000000000000000000000000000600052604160045260246000fd5b6106e9826106a0565b810181811067ffffffffffffffff82111715610708576107076106b1565b5b80604052505050565b600061071b6105d6565b905061072782826106e0565b919050565b600067ffffffffffffffff821115610747576107466106b1565b5b610750826106a0565b9050602081019050919050565b82818337600083830152505050565b600061077f61077a8461072c565b610711565b90508281526020810184848401111561079b5761079a61069b565b5b6107a684828561075d565b509392505050565b600082601f8301126107c3576107c2610696565b5b81356107d384826020860161076c565b91505092915050565b6000602082840312156107f2576107f16105e0565b5b600082013567ffffffffffffffff8111156108105761080f6105e5565b5b61081c848285016107ae565b91505092915050565b61082e816105ea565b82525050565b60006020820190506108496000830184610825565b92915050565b61085881610620565b82525050565b6000602082019050610873600083018461084f565b92915050565b600073ffffffffffffffffffffffffffffffffffffffff82169050919050565b6000819050919050565b60006108be6108b96108b484610879565b610899565b610879565b9050919050565b60006108d0826108a3565b9050919050565b60006108e2826108c5565b9050919050565b6108f2816108d7565b82525050565b600060208201905061090d60008301846108e9565b92915050565b600082825260208201905092915050565b7f4f6e6c7920565246436f6f7264696e61746f722063616e2066756c66696c6c00600082015250565b600061095a601f83610913565b915061096582610924565b602082019050919050565b600060208201905081810360008301526109898161094d565b9050919050565b7f4e487b7100000000000000000000000000000000000000000000000000000000600052602260045260246000fd5b600060028204905060018216806109d757607f821691505b6020821081036109ea576109e9610990565b5b50919050565b600081905092915050565b60008190508160005260206000209050919050565b60008154610a1d816109bf565b610a2781866109f0565b94506001821660008114610a425760018114610a5357610a86565b60ff19831686528186019350610a86565b610a5c856109fb565b60005b83811015610a7e57815481890152600182019150602081019050610a5f565b838801955050505b50505092915050565b6000610a9b8284610a10565b915081905092915050565b600081519050919050565b600081905092915050565b60005b83811015610ada578082015181840152602081019050610abf565b83811115610ae9576000848401525b50505050565b6000610afa82610aa6565b610b048185610ab1565b9350610b14818560208601610abc565b80840191505092915050565b6000610b2c8284610aef565b915081905092915050565b6000604082019050610b4c6000830185610825565b610b59602083018461084f565b9392505050565b6000610b6b82610879565b9050919050565b610b7b81610b60565b82525050565b600082825260208201905092915050565b6000610b9d82610aa6565b610ba78185610b81565b9350610bb7818560208601610abc565b610bc0816106a0565b840191505092915050565b6000606082019050610be06000830186610b72565b610bed602083018561084f565b8181036040830152610bff8184610b92565b9050949350505050565b60008115159050919050565b610c1e81610c09565b8114610c2957600080fd5b50565b600081519050610c3b81610c15565b92915050565b600060208284031215610c5757610c566105e0565b5b6000610c6584828501610c2c565b91505092915050565b7f4e487b7100000000000000000000000000000000000000000000000000000000600052601160045260246000fd5b6000610ca882610620565b9150610cb383610620565b9250827fffffffffffffffffffffffffffffffffffffffffffffffffffffffffffffffff03821115610ce857610ce7610c6e565b5b828201905092915050565b6000608082019050610d086000830187610825565b610d15602083018661084f565b610d226040830185610b72565b610d2f606083018461084f565b95945050505050565b6000819050919050565b610d53610d4e826105ea565b610d38565b82525050565b6000819050919050565b610d74610d6f82610620565b610d59565b82525050565b6000610d868285610d42565b602082019150610d968284610d63565b602082019150819050939250505056fea264697066735822122040aa7dd14b82f200daecc10b7864097af5fe5cdf5c56bea9b64fc931ab7aaf7464736f6c634300080d0033",
  "linkReferences": {},
  "deployedLinkReferences": {}
}