{
  "_format": "hh-sol-artifact-1",
  "contractName": "TicketFactory",
  "sourceName": "contracts/Ticket/TicketFactory.sol",
  "abi": [
    {
      "inputs": [
        {
          "internalType": "address",
          "name": "_beaconAddress",
          "type": "address"
        },
        {
          "internalType": "address",
          "name": "_vrfConsumerAddress",
          "type": "address"
        }
      ],
      "stateMutability": "nonpayable",
      "type": "constructor"
    },
    {
      "inputs": [],
      "name": "OnlyOneTicketAtTime",
      "type": "error"
    },
    {
      "anonymous": false,
      "inputs": [
        {
          "indexed": true,
          "internalType": "address",
          "name": "newLottery",
          "type": "address"
        }
      ],
      "name": "NewLotteryDeployed",
      "type": "event"
    },
    {
      "anonymous": false,
      "inputs": [
        {
          "indexed": true,
          "internalType": "address",
          "name": "previousOwner",
          "type": "address"
        },
        {
          "indexed": true,
          "internalType": "address",
          "name": "newOwner",
          "type": "address"
        }
      ],
      "name": "OwnershipTransferred",
      "type": "event"
    },
    {
      "inputs": [],
      "name": "BEACON_ADDRESS",
      "outputs": [
        {
          "internalType": "address",
          "name": "",
          "type": "address"
        }
      ],
      "stateMutability": "view",
      "type": "function"
    },
    {
      "inputs": [],
      "name": "VRF_CONSUMER",
      "outputs": [
        {
          "internalType": "address",
          "name": "",
          "type": "address"
        }
      ],
      "stateMutability": "view",
      "type": "function"
    },
    {
      "inputs": [
        {
          "internalType": "string",
          "name": "_name",
          "type": "string"
        },
        {
          "internalType": "string",
          "name": "_symbol",
          "type": "string"
        },
        {
          "internalType": "uint64",
          "name": "_start",
          "type": "uint64"
        },
        {
          "internalType": "uint64",
          "name": "_end",
          "type": "uint64"
        },
        {
          "internalType": "uint128",
          "name": "_ticketPrice",
          "type": "uint128"
        }
      ],
      "name": "deployTicketProxy",
      "outputs": [],
      "stateMutability": "nonpayable",
      "type": "function"
    },
    {
      "inputs": [
        {
          "internalType": "string",
          "name": "_name",
          "type": "string"
        },
        {
          "internalType": "string",
          "name": "_symbol",
          "type": "string"
        },
        {
          "internalType": "uint64",
          "name": "_start",
          "type": "uint64"
        },
        {
          "internalType": "uint64",
          "name": "_end",
          "type": "uint64"
        },
        {
          "internalType": "uint128",
          "name": "_ticketPrice",
          "type": "uint128"
        },
        {
          "internalType": "uint256",
          "name": "_salt",
          "type": "uint256"
        }
      ],
      "name": "deployTicketProxyDeterministic",
      "outputs": [],
      "stateMutability": "nonpayable",
      "type": "function"
    },
    {
      "inputs": [],
      "name": "deployedTicketProxies",
      "outputs": [
        {
          "internalType": "address[]",
          "name": "",
          "type": "address[]"
        }
      ],
      "stateMutability": "view",
      "type": "function"
    },
    {
      "inputs": [],
      "name": "latestTicketProxy",
      "outputs": [
        {
          "internalType": "address",
          "name": "_latestTicketProxy",
          "type": "address"
        }
      ],
      "stateMutability": "view",
      "type": "function"
    },
    {
      "inputs": [],
      "name": "owner",
      "outputs": [
        {
          "internalType": "address",
          "name": "",
          "type": "address"
        }
      ],
      "stateMutability": "view",
      "type": "function"
    },
    {
      "inputs": [],
      "name": "renounceOwnership",
      "outputs": [],
      "stateMutability": "nonpayable",
      "type": "function"
    },
    {
      "inputs": [
        {
          "internalType": "address",
          "name": "newOwner",
          "type": "address"
        }
      ],
      "name": "transferOwnership",
      "outputs": [],
      "stateMutability": "nonpayable",
      "type": "function"
    }
  ],
  "bytecode": "0x60c06040523480156200001157600080fd5b50604051620021ed380380620021ed8339818101604052810190620000379190620001fd565b620000576200004b620000c760201b60201c565b620000cf60201b60201c565b8173ffffffffffffffffffffffffffffffffffffffff1660808173ffffffffffffffffffffffffffffffffffffffff16815250508073ffffffffffffffffffffffffffffffffffffffff1660a08173ffffffffffffffffffffffffffffffffffffffff1681525050505062000244565b600033905090565b60008060009054906101000a900473ffffffffffffffffffffffffffffffffffffffff169050816000806101000a81548173ffffffffffffffffffffffffffffffffffffffff021916908373ffffffffffffffffffffffffffffffffffffffff1602179055508173ffffffffffffffffffffffffffffffffffffffff168173ffffffffffffffffffffffffffffffffffffffff167f8be0079c531659141344cd1fd0a4f28419497f9722a3daafe3b4186f6b6457e060405160405180910390a35050565b600080fd5b600073ffffffffffffffffffffffffffffffffffffffff82169050919050565b6000620001c58262000198565b9050919050565b620001d781620001b8565b8114620001e357600080fd5b50565b600081519050620001f781620001cc565b92915050565b6000806040838503121562000217576200021662000193565b5b60006200022785828601620001e6565b92505060206200023a85828601620001e6565b9150509250929050565b60805160a051611f6e6200027f600039600081816103af01526106cf0152600081816102c80152818161032e01526104db0152611f6e6000f3fe60806040523480156200001157600080fd5b5060043610620000a05760003560e01c80637da1b074116200006f5780637da1b07414620001155780638da5cb5b1462000137578063cb4836ec1462000159578063e4bbfbbf1462000179578063f2fde38b146200019b57620000a0565b80630d082ba214620000a55780631af72fbd14620000c55780632520165114620000e7578063715018a61462000109575b600080fd5b620000c36004803603810190620000bd919062000a1f565b620001bb565b005b620000cf620004d9565b604051620000de919062000b48565b60405180910390f35b620000f1620004fd565b60405162000100919062000b48565b60405180910390f35b62000113620005d6565b005b6200011f620005ee565b6040516200012e919062000c33565b60405180910390f35b620001416200067e565b60405162000150919062000b48565b60405180910390f35b62000177600480360381019062000171919062000c57565b620006a7565b005b62000183620006cd565b60405162000192919062000b48565b60405180910390f35b620001b96004803603810190620001b3919062000d57565b620006f1565b005b620001c56200077b565b6000620001d1620004fd565b9050600073ffffffffffffffffffffffffffffffffffffffff168173ffffffffffffffffffffffffffffffffffffffff16141580156200028057508073ffffffffffffffffffffffffffffffffffffffff1663bef4876b6040518163ffffffff1660e01b8152600401602060405180830381865afa15801562000258573d6000803e3d6000fd5b505050506040513d601f19601f820116820180604052508101906200027e919062000dc6565b155b15620002b8576040517f3f7fe24200000000000000000000000000000000000000000000000000000000815260040160405180910390fd5b60008083146200032c578260001b7f0000000000000000000000000000000000000000000000000000000000000000604051620002f590620008cc565b62000301919062000b48565b8190604051809103906000f590508015801562000322573d6000803e3d6000fd5b5090508062000389565b7f00000000000000000000000000000000000000000000000000000000000000006040516200035b90620008cc565b62000367919062000b48565b604051809103906000f08015801562000384573d6000803e3d6000fd5b509050805b508073ffffffffffffffffffffffffffffffffffffffff1663c2d864f08b8b8b8b8b8b8b7f00000000000000000000000000000000000000000000000000000000000000006040518963ffffffff1660e01b8152600401620003f398979695949392919062000e7e565b600060405180830381600087803b1580156200040e57600080fd5b505af115801562000423573d6000803e3d6000fd5b505050506001819080600181540180825580915050600190039060005260206000200160009091909190916101000a81548173ffffffffffffffffffffffffffffffffffffffff021916908373ffffffffffffffffffffffffffffffffffffffff1602179055508073ffffffffffffffffffffffffffffffffffffffff167f54a331487e08297f6307e907589d70ed44b67b98bf102bef28d0c35944c837da60405160405180910390a250505050505050505050565b7f000000000000000000000000000000000000000000000000000000000000000081565b60008060018054806020026020016040519081016040528092919081815260200182805480156200058457602002820191906000526020600020905b8160009054906101000a900473ffffffffffffffffffffffffffffffffffffffff1673ffffffffffffffffffffffffffffffffffffffff168152602001906001019080831162000539575b505050505090506000815114620005cb578060018251620005a6919062000f2c565b81518110620005ba57620005b962000f67565b5b6020026020010151915081620005d1565b60009150815b505090565b620005e06200077b565b620005ec600062000800565b565b606060018054806020026020016040519081016040528092919081815260200182805480156200067457602002820191906000526020600020905b8160009054906101000a900473ffffffffffffffffffffffffffffffffffffffff1673ffffffffffffffffffffffffffffffffffffffff168152602001906001019080831162000629575b5050505050905090565b60008060009054906101000a900473ffffffffffffffffffffffffffffffffffffffff16905090565b620006b16200077b565b620006c4878787878787876000620001bb565b50505050505050565b7f000000000000000000000000000000000000000000000000000000000000000081565b620006fb6200077b565b600073ffffffffffffffffffffffffffffffffffffffff168173ffffffffffffffffffffffffffffffffffffffff16036200076d576040517f08c379a000000000000000000000000000000000000000000000000000000000815260040162000764906200100c565b60405180910390fd5b620007788162000800565b50565b62000785620008c4565b73ffffffffffffffffffffffffffffffffffffffff16620007a56200067e565b73ffffffffffffffffffffffffffffffffffffffff1614620007fe576040517f08c379a0000000000000000000000000000000000000000000000000000000008152600401620007f5906200107e565b60405180910390fd5b565b60008060009054906101000a900473ffffffffffffffffffffffffffffffffffffffff169050816000806101000a81548173ffffffffffffffffffffffffffffffffffffffff021916908373ffffffffffffffffffffffffffffffffffffffff1602179055508173ffffffffffffffffffffffffffffffffffffffff168173ffffffffffffffffffffffffffffffffffffffff167f8be0079c531659141344cd1fd0a4f28419497f9722a3daafe3b4186f6b6457e060405160405180910390a35050565b600033905090565b610e9880620010a183390190565b600080fd5b600080fd5b600080fd5b600080fd5b600080fd5b60008083601f8401126200090c576200090b620008e4565b5b8235905067ffffffffffffffff8111156200092c576200092b620008e9565b5b6020830191508360018202830111156200094b576200094a620008ee565b5b9250929050565b600067ffffffffffffffff82169050919050565b620009718162000952565b81146200097d57600080fd5b50565b600081359050620009918162000966565b92915050565b60006fffffffffffffffffffffffffffffffff82169050919050565b620009be8162000997565b8114620009ca57600080fd5b50565b600081359050620009de81620009b3565b92915050565b6000819050919050565b620009f981620009e4565b811462000a0557600080fd5b50565b60008135905062000a1981620009ee565b92915050565b60008060008060008060008060c0898b03121562000a425762000a41620008da565b5b600089013567ffffffffffffffff81111562000a635762000a62620008df565b5b62000a718b828c01620008f3565b9850985050602089013567ffffffffffffffff81111562000a975762000a96620008df565b5b62000aa58b828c01620008f3565b9650965050604062000aba8b828c0162000980565b945050606062000acd8b828c0162000980565b935050608062000ae08b828c01620009cd565b92505060a062000af38b828c0162000a08565b9150509295985092959890939650565b600073ffffffffffffffffffffffffffffffffffffffff82169050919050565b600062000b308262000b03565b9050919050565b62000b428162000b23565b82525050565b600060208201905062000b5f600083018462000b37565b92915050565b600081519050919050565b600082825260208201905092915050565b6000819050602082019050919050565b62000b9c8162000b23565b82525050565b600062000bb0838362000b91565b60208301905092915050565b6000602082019050919050565b600062000bd68262000b65565b62000be2818562000b70565b935062000bef8362000b81565b8060005b8381101562000c2657815162000c0a888262000ba2565b975062000c178362000bbc565b92505060018101905062000bf3565b5085935050505092915050565b6000602082019050818103600083015262000c4f818462000bc9565b905092915050565b600080600080600080600060a0888a03121562000c795762000c78620008da565b5b600088013567ffffffffffffffff81111562000c9a5762000c99620008df565b5b62000ca88a828b01620008f3565b9750975050602088013567ffffffffffffffff81111562000cce5762000ccd620008df565b5b62000cdc8a828b01620008f3565b9550955050604062000cf18a828b0162000980565b935050606062000d048a828b0162000980565b925050608062000d178a828b01620009cd565b91505092959891949750929550565b62000d318162000b23565b811462000d3d57600080fd5b50565b60008135905062000d518162000d26565b92915050565b60006020828403121562000d705762000d6f620008da565b5b600062000d808482850162000d40565b91505092915050565b60008115159050919050565b62000da08162000d89565b811462000dac57600080fd5b50565b60008151905062000dc08162000d95565b92915050565b60006020828403121562000ddf5762000dde620008da565b5b600062000def8482850162000daf565b91505092915050565b600082825260208201905092915050565b82818337600083830152505050565b6000601f19601f8301169050919050565b600062000e37838562000df8565b935062000e4683858462000e09565b62000e518362000e18565b840190509392505050565b62000e678162000952565b82525050565b62000e788162000997565b82525050565b600060c082019050818103600083015262000e9b818a8c62000e29565b9050818103602083015262000eb281888a62000e29565b905062000ec3604083018762000e5c565b62000ed2606083018662000e5c565b62000ee1608083018562000e6d565b62000ef060a083018462000b37565b9998505050505050505050565b7f4e487b7100000000000000000000000000000000000000000000000000000000600052601160045260246000fd5b600062000f3982620009e4565b915062000f4683620009e4565b92508282101562000f5c5762000f5b62000efd565b5b828203905092915050565b7f4e487b7100000000000000000000000000000000000000000000000000000000600052603260045260246000fd5b7f4f776e61626c653a206e6577206f776e657220697320746865207a65726f206160008201527f6464726573730000000000000000000000000000000000000000000000000000602082015250565b600062000ff460268362000df8565b9150620010018262000f96565b604082019050919050565b60006020820190508181036000830152620010278162000fe5565b9050919050565b7f4f776e61626c653a2063616c6c6572206973206e6f7420746865206f776e6572600082015250565b60006200106660208362000df8565b915062001073826200102e565b602082019050919050565b60006020820190508181036000830152620010998162001057565b905091905056fe608060405260405162000e9838038062000e9883398181016040528101906200002991906200050a565b80604051806020016040528060008152506200004e828260006200005760201b60201c565b50505062000832565b62000068836200014e60201b60201c565b8273ffffffffffffffffffffffffffffffffffffffff167f1cf3b03a6cf19fa2baba4df148e9dcabedea7f8a5c07840e207e5c089be95d3e60405160405180910390a2600082511180620000b95750805b156200014957620001478373ffffffffffffffffffffffffffffffffffffffff16635c60da1b6040518163ffffffff1660e01b8152600401602060405180830381865afa1580156200010f573d6000803e3d6000fd5b505050506040513d601f19601f820116820180604052508101906200013591906200050a565b83620002ed60201b620000d41760201c565b505b505050565b62000164816200032360201b620001011760201c565b620001a6576040517f08c379a00000000000000000000000000000000000000000000000000000000081526004016200019d90620005c3565b60405180910390fd5b6200022d8173ffffffffffffffffffffffffffffffffffffffff16635c60da1b6040518163ffffffff1660e01b8152600401602060405180830381865afa158015620001f6573d6000803e3d6000fd5b505050506040513d601f19601f820116820180604052508101906200021c91906200050a565b6200032360201b620001011760201c565b6200026f576040517f08c379a000000000000000000000000000000000000000000000000000000000815260040162000266906200065b565b60405180910390fd5b80620002a97fa3f0ad74e5423aebfd80d3ef4346578335a9a72aeaee59ff6cb3582b35133d5060001b6200034660201b620001241760201c565b60000160006101000a81548173ffffffffffffffffffffffffffffffffffffffff021916908373ffffffffffffffffffffffffffffffffffffffff16021790555050565b60606200031b838360405180606001604052806027815260200162000e71602791396200035060201b60201c565b905092915050565b6000808273ffffffffffffffffffffffffffffffffffffffff163b119050919050565b6000819050919050565b606062000363846200032360201b60201c565b620003a5576040517f08c379a00000000000000000000000000000000000000000000000000000000081526004016200039c90620006f3565b60405180910390fd5b6000808573ffffffffffffffffffffffffffffffffffffffff1685604051620003cf919062000798565b600060405180830381855af49150503d80600081146200040c576040519150601f19603f3d011682016040523d82523d6000602084013e62000411565b606091505b5091509150620004298282866200043460201b60201c565b925050509392505050565b60608315620004465782905062000499565b6000835111156200045a5782518084602001fd5b816040517f08c379a00000000000000000000000000000000000000000000000000000000081526004016200049091906200080e565b60405180910390fd5b9392505050565b600080fd5b600073ffffffffffffffffffffffffffffffffffffffff82169050919050565b6000620004d282620004a5565b9050919050565b620004e481620004c5565b8114620004f057600080fd5b50565b6000815190506200050481620004d9565b92915050565b600060208284031215620005235762000522620004a0565b5b60006200053384828501620004f3565b91505092915050565b600082825260208201905092915050565b7f455243313936373a206e657720626561636f6e206973206e6f74206120636f6e60008201527f7472616374000000000000000000000000000000000000000000000000000000602082015250565b6000620005ab6025836200053c565b9150620005b8826200054d565b604082019050919050565b60006020820190508181036000830152620005de816200059c565b9050919050565b7f455243313936373a20626561636f6e20696d706c656d656e746174696f6e206960008201527f73206e6f74206120636f6e747261637400000000000000000000000000000000602082015250565b6000620006436030836200053c565b91506200065082620005e5565b604082019050919050565b60006020820190508181036000830152620006768162000634565b9050919050565b7f416464726573733a2064656c65676174652063616c6c20746f206e6f6e2d636f60008201527f6e74726163740000000000000000000000000000000000000000000000000000602082015250565b6000620006db6026836200053c565b9150620006e8826200067d565b604082019050919050565b600060208201905081810360008301526200070e81620006cc565b9050919050565b600081519050919050565b600081905092915050565b60005b838110156200074b5780820151818401526020810190506200072e565b838111156200075b576000848401525b50505050565b60006200076e8262000715565b6200077a818562000720565b93506200078c8185602086016200072b565b80840191505092915050565b6000620007a6828462000761565b915081905092915050565b600081519050919050565b6000601f19601f8301169050919050565b6000620007da82620007b1565b620007e681856200053c565b9350620007f88185602086016200072b565b6200080381620007bc565b840191505092915050565b600060208201905081810360008301526200082a8184620007cd565b905092915050565b61062f80620008426000396000f3fe60806040526004361061002d5760003560e01c806359659e90146100465780635c60da1b146100715761003c565b3661003c5761003a61009c565b005b61004461009c565b005b34801561005257600080fd5b5061005b6100b6565b60405161006891906103ae565b60405180910390f35b34801561007d57600080fd5b506100866100c5565b60405161009391906103ae565b60405180910390f35b6100a461012e565b6100b46100af610130565b6101ad565b565b60006100c06101d3565b905090565b60006100cf610130565b905090565b60606100f983836040518060600160405280602781526020016105d3602791396101e2565b905092915050565b6000808273ffffffffffffffffffffffffffffffffffffffff163b119050919050565b6000819050919050565b565b600061013a6102af565b73ffffffffffffffffffffffffffffffffffffffff16635c60da1b6040518163ffffffff1660e01b8152600401602060405180830381865afa158015610184573d6000803e3d6000fd5b505050506040513d601f19601f820116820180604052508101906101a891906103fa565b905090565b3660008037600080366000845af43d6000803e80600081146101ce573d6000f35b3d6000fd5b60006101dd6102af565b905090565b60606101ed84610101565b61022c576040517f08c379a0000000000000000000000000000000000000000000000000000000008152600401610223906104aa565b60405180910390fd5b6000808573ffffffffffffffffffffffffffffffffffffffff16856040516102549190610544565b600060405180830381855af49150503d806000811461028f576040519150601f19603f3d011682016040523d82523d6000602084013e610294565b606091505b50915091506102a4828286610306565b925050509392505050565b60006102dd7fa3f0ad74e5423aebfd80d3ef4346578335a9a72aeaee59ff6cb3582b35133d5060001b610124565b60000160009054906101000a900473ffffffffffffffffffffffffffffffffffffffff16905090565b6060831561031657829050610366565b6000835111156103295782518084602001fd5b816040517f08c379a000000000000000000000000000000000000000000000000000000000815260040161035d91906105b0565b60405180910390fd5b9392505050565b600073ffffffffffffffffffffffffffffffffffffffff82169050919050565b60006103988261036d565b9050919050565b6103a88161038d565b82525050565b60006020820190506103c3600083018461039f565b92915050565b600080fd5b6103d78161038d565b81146103e257600080fd5b50565b6000815190506103f4816103ce565b92915050565b6000602082840312156104105761040f6103c9565b5b600061041e848285016103e5565b91505092915050565b600082825260208201905092915050565b7f416464726573733a2064656c65676174652063616c6c20746f206e6f6e2d636f60008201527f6e74726163740000000000000000000000000000000000000000000000000000602082015250565b6000610494602683610427565b915061049f82610438565b604082019050919050565b600060208201905081810360008301526104c381610487565b9050919050565b600081519050919050565b600081905092915050565b60005b838110156104fe5780820151818401526020810190506104e3565b8381111561050d576000848401525b50505050565b600061051e826104ca565b61052881856104d5565b93506105388185602086016104e0565b80840191505092915050565b60006105508284610513565b915081905092915050565b600081519050919050565b6000601f19601f8301169050919050565b60006105828261055b565b61058c8185610427565b935061059c8185602086016104e0565b6105a581610566565b840191505092915050565b600060208201905081810360008301526105ca8184610577565b90509291505056fe416464726573733a206c6f772d6c6576656c2064656c65676174652063616c6c206661696c6564a2646970667358221220fdd69b2189b7e9c0de5581ca0f6f5bff2e45794915bf08ec82ec4a7e53450b0164736f6c634300080d0033416464726573733a206c6f772d6c6576656c2064656c65676174652063616c6c206661696c6564a2646970667358221220ee52d1d5c30d9ae291a7c695beefbc7b9f2e23e36ebbabc9f16e79dc38a14f2464736f6c634300080d0033",
  "linkReferences": {},
  "deployedLinkReferences": {}
}