{
  "_format": "hh-sol-artifact-1",
  "contractName": "TicketProxy",
  "sourceName": "contracts/Ticket/TicketProxy.sol",
  "abi": [
    {
      "inputs": [
        {
          "internalType": "address",
          "name": "_beacon",
          "type": "address"
        }
      ],
      "stateMutability": "payable",
      "type": "constructor"
    },
    {
      "anonymous": false,
      "inputs": [
        {
          "indexed": false,
          "internalType": "address",
          "name": "previousAdmin",
          "type": "address"
        },
        {
          "indexed": false,
          "internalType": "address",
          "name": "newAdmin",
          "type": "address"
        }
      ],
      "name": "AdminChanged",
      "type": "event"
    },
    {
      "anonymous": false,
      "inputs": [
        {
          "indexed": true,
          "internalType": "address",
          "name": "beacon",
          "type": "address"
        }
      ],
      "name": "BeaconUpgraded",
      "type": "event"
    },
    {
      "anonymous": false,
      "inputs": [
        {
          "indexed": true,
          "internalType": "address",
          "name": "implementation",
          "type": "address"
        }
      ],
      "name": "Upgraded",
      "type": "event"
    },
    {
      "stateMutability": "payable",
      "type": "fallback"
    },
    {
      "inputs": [],
      "name": "beacon",
      "outputs": [
        {
          "internalType": "address",
          "name": "",
          "type": "address"
        }
      ],
      "stateMutability": "view",
      "type": "function"
    },
    {
      "inputs": [],
      "name": "implementation",
      "outputs": [
        {
          "internalType": "address",
          "name": "",
          "type": "address"
        }
      ],
      "stateMutability": "view",
      "type": "function"
    },
    {
      "stateMutability": "payable",
      "type": "receive"
    }
  ],
  "bytecode": "0x608060405260405162000e9838038062000e9883398181016040528101906200002991906200050a565b80604051806020016040528060008152506200004e828260006200005760201b60201c565b50505062000832565b62000068836200014e60201b60201c565b8273ffffffffffffffffffffffffffffffffffffffff167f1cf3b03a6cf19fa2baba4df148e9dcabedea7f8a5c07840e207e5c089be95d3e60405160405180910390a2600082511180620000b95750805b156200014957620001478373ffffffffffffffffffffffffffffffffffffffff16635c60da1b6040518163ffffffff1660e01b8152600401602060405180830381865afa1580156200010f573d6000803e3d6000fd5b505050506040513d601f19601f820116820180604052508101906200013591906200050a565b83620002ed60201b620000d41760201c565b505b505050565b62000164816200032360201b620001011760201c565b620001a6576040517f08c379a00000000000000000000000000000000000000000000000000000000081526004016200019d90620005c3565b60405180910390fd5b6200022d8173ffffffffffffffffffffffffffffffffffffffff16635c60da1b6040518163ffffffff1660e01b8152600401602060405180830381865afa158015620001f6573d6000803e3d6000fd5b505050506040513d601f19601f820116820180604052508101906200021c91906200050a565b6200032360201b620001011760201c565b6200026f576040517f08c379a000000000000000000000000000000000000000000000000000000000815260040162000266906200065b565b60405180910390fd5b80620002a97fa3f0ad74e5423aebfd80d3ef4346578335a9a72aeaee59ff6cb3582b35133d5060001b6200034660201b620001241760201c565b60000160006101000a81548173ffffffffffffffffffffffffffffffffffffffff021916908373ffffffffffffffffffffffffffffffffffffffff16021790555050565b60606200031b838360405180606001604052806027815260200162000e71602791396200035060201b60201c565b905092915050565b6000808273ffffffffffffffffffffffffffffffffffffffff163b119050919050565b6000819050919050565b606062000363846200032360201b60201c565b620003a5576040517f08c379a00000000000000000000000000000000000000000000000000000000081526004016200039c90620006f3565b60405180910390fd5b6000808573ffffffffffffffffffffffffffffffffffffffff1685604051620003cf919062000798565b600060405180830381855af49150503d80600081146200040c576040519150601f19603f3d011682016040523d82523d6000602084013e62000411565b606091505b5091509150620004298282866200043460201b60201c565b925050509392505050565b60608315620004465782905062000499565b6000835111156200045a5782518084602001fd5b816040517f08c379a00000000000000000000000000000000000000000000000000000000081526004016200049091906200080e565b60405180910390fd5b9392505050565b600080fd5b600073ffffffffffffffffffffffffffffffffffffffff82169050919050565b6000620004d282620004a5565b9050919050565b620004e481620004c5565b8114620004f057600080fd5b50565b6000815190506200050481620004d9565b92915050565b600060208284031215620005235762000522620004a0565b5b60006200053384828501620004f3565b91505092915050565b600082825260208201905092915050565b7f455243313936373a206e657720626561636f6e206973206e6f74206120636f6e60008201527f7472616374000000000000000000000000000000000000000000000000000000602082015250565b6000620005ab6025836200053c565b9150620005b8826200054d565b604082019050919050565b60006020820190508181036000830152620005de816200059c565b9050919050565b7f455243313936373a20626561636f6e20696d706c656d656e746174696f6e206960008201527f73206e6f74206120636f6e747261637400000000000000000000000000000000602082015250565b6000620006436030836200053c565b91506200065082620005e5565b604082019050919050565b60006020820190508181036000830152620006768162000634565b9050919050565b7f416464726573733a2064656c65676174652063616c6c20746f206e6f6e2d636f60008201527f6e74726163740000000000000000000000000000000000000000000000000000602082015250565b6000620006db6026836200053c565b9150620006e8826200067d565b604082019050919050565b600060208201905081810360008301526200070e81620006cc565b9050919050565b600081519050919050565b600081905092915050565b60005b838110156200074b5780820151818401526020810190506200072e565b838111156200075b576000848401525b50505050565b60006200076e8262000715565b6200077a818562000720565b93506200078c8185602086016200072b565b80840191505092915050565b6000620007a6828462000761565b915081905092915050565b600081519050919050565b6000601f19601f8301169050919050565b6000620007da82620007b1565b620007e681856200053c565b9350620007f88185602086016200072b565b6200080381620007bc565b840191505092915050565b600060208201905081810360008301526200082a8184620007cd565b905092915050565b61062f80620008426000396000f3fe60806040526004361061002d5760003560e01c806359659e90146100465780635c60da1b146100715761003c565b3661003c5761003a61009c565b005b61004461009c565b005b34801561005257600080fd5b5061005b6100b6565b60405161006891906103ae565b60405180910390f35b34801561007d57600080fd5b506100866100c5565b60405161009391906103ae565b60405180910390f35b6100a461012e565b6100b46100af610130565b6101ad565b565b60006100c06101d3565b905090565b60006100cf610130565b905090565b60606100f983836040518060600160405280602781526020016105d3602791396101e2565b905092915050565b6000808273ffffffffffffffffffffffffffffffffffffffff163b119050919050565b6000819050919050565b565b600061013a6102af565b73ffffffffffffffffffffffffffffffffffffffff16635c60da1b6040518163ffffffff1660e01b8152600401602060405180830381865afa158015610184573d6000803e3d6000fd5b505050506040513d601f19601f820116820180604052508101906101a891906103fa565b905090565b3660008037600080366000845af43d6000803e80600081146101ce573d6000f35b3d6000fd5b60006101dd6102af565b905090565b60606101ed84610101565b61022c576040517f08c379a0000000000000000000000000000000000000000000000000000000008152600401610223906104aa565b60405180910390fd5b6000808573ffffffffffffffffffffffffffffffffffffffff16856040516102549190610544565b600060405180830381855af49150503d806000811461028f576040519150601f19603f3d011682016040523d82523d6000602084013e610294565b606091505b50915091506102a4828286610306565b925050509392505050565b60006102dd7fa3f0ad74e5423aebfd80d3ef4346578335a9a72aeaee59ff6cb3582b35133d5060001b610124565b60000160009054906101000a900473ffffffffffffffffffffffffffffffffffffffff16905090565b6060831561031657829050610366565b6000835111156103295782518084602001fd5b816040517f08c379a000000000000000000000000000000000000000000000000000000000815260040161035d91906105b0565b60405180910390fd5b9392505050565b600073ffffffffffffffffffffffffffffffffffffffff82169050919050565b60006103988261036d565b9050919050565b6103a88161038d565b82525050565b60006020820190506103c3600083018461039f565b92915050565b600080fd5b6103d78161038d565b81146103e257600080fd5b50565b6000815190506103f4816103ce565b92915050565b6000602082840312156104105761040f6103c9565b5b600061041e848285016103e5565b91505092915050565b600082825260208201905092915050565b7f416464726573733a2064656c65676174652063616c6c20746f206e6f6e2d636f60008201527f6e74726163740000000000000000000000000000000000000000000000000000602082015250565b6000610494602683610427565b915061049f82610438565b604082019050919050565b600060208201905081810360008301526104c381610487565b9050919050565b600081519050919050565b600081905092915050565b60005b838110156104fe5780820151818401526020810190506104e3565b8381111561050d576000848401525b50505050565b600061051e826104ca565b61052881856104d5565b93506105388185602086016104e0565b80840191505092915050565b60006105508284610513565b915081905092915050565b600081519050919050565b6000601f19601f8301169050919050565b60006105828261055b565b61058c8185610427565b935061059c8185602086016104e0565b6105a581610566565b840191505092915050565b600060208201905081810360008301526105ca8184610577565b90509291505056fe416464726573733a206c6f772d6c6576656c2064656c65676174652063616c6c206661696c6564a2646970667358221220fdd69b2189b7e9c0de5581ca0f6f5bff2e45794915bf08ec82ec4a7e53450b0164736f6c634300080d0033416464726573733a206c6f772d6c6576656c2064656c65676174652063616c6c206661696c6564",
  "linkReferences": {},
  "deployedLinkReferences": {}
}